:020000040000FA
:1000000060030010A1010000A9010000AB01000085
:10001000AD010000AF010000B101000000000000D0
:10002000000000000000000000000000B30100001C
:10003000B501000000000000B7010000B901000098
:10004000BB010000BB010000BB010000BB010000C0
:10005000BB010000BB010000BB010000BB010000B0
:10006000BB010000BB010000BB010000BB010000A0
:10007000BB010000BB010000BB010000BB01000090
:10008000BB010000BB010000BB010000BB01000080
:10009000BB010000BB010000BB010000BB01000070
:1000A000BB010000BB010000BB010000BB01000060
:1000B000BB010000BB010000BB010000BB01000050
:1000C000BB010000BB010000BB01000000F002F812
:1000D00000F03CF80AA090E8000C82448344AAF1A6
:1000E0000107DA4501D100F031F8AFF2090EBAE8A4
:1000F0000F0013F0010F18BFFB1A43F0010318475C
:10010000A4070000C4070000103A24BF78C878C1D3
:10011000FAD8520724BF30C830C144BF04680C600D
:10012000704700000023002400250026103A28BF55
:1001300078C1FBD8520728BF30C148BF0B60704759
:100140001FB500F03CFB1FBD10B510BD00F072FBE9
:100150001146FFF7F5FF00F00AF900F0B9F803B413
:10016000FFF7F2FF03BC00F0BDF800000B49D1F827
:1001700000C04A685CF8043B1068184442F8040B5D
:100180008C4528BFA1F1DC0C8A4228BFA1F1DC021A
:10019000C1F800C04A6020F000407047F400001031
:1001A0000948804709480047FEE7FEE7FEE7FEE70B
:1001B000FEE7FEE7FEE7FEE7FEE7FEE70448054947
:1001C000034A054B7047000025060000CD000000E3
:1001D00060010010600300106001001053EA020C7F
:1001E00000F069802DE9F04B4FF00006002B1FBF97
:1001F000B3FA83F503FA05F424FA05F65E4012BF5C
:100200001643B2FA82F502FA05F4C5F120051EBFC5
:1002100022FA05FC44EA0C04203556EA044C4FEA65
:10022000144418BF641C4FF000084FF000099042BE
:1002300071EB030C39D3002919BFB1FA81F701FA28
:1002400007F6B0FA80F700FA07F6C7F120071EBFDD
:1002500020FA07FC46EA0C062037B6FBF4FCA7EBB5
:100260000507103F07F01F0BCBF120060CFA0BFB24
:100270002CFA06F644BFB3460026202FA4BF5E46E4
:100280004FF0000B5BEA060C08BF4FF0010B19EBB7
:100290000B09ABFB027C48EB0608C01B06FB02CC3B
:1002A0000BFB03CC71EB0C01C1E70B460246414648
:1002B0004846BDE8F08B13B54FF000004FF0000149
:1002C000AFF30080BDE81C4070477047704770472F
:1002D0000446AFF300802046FFF741FF0048704717
:1002E000FC00001001491820ABBEFEE7260002000A
:1002F000704700000000000000000000FFFFFFFF4B
:1003000052490988C905524A51615249096819B9C7
:100310004FF00061D16103E04FF000614C4A916100
:100320004FF080514A4A9161002000E0401C322881
:10033000FCDB4FF08051464AD161002000E0401CB8
:1003400042F210718842FADB704700B542480078EB
:10035000C0F303103D490860FFF7D2FF3E48007824
:1003600000F00F0039490860FFF7CAFF00BD8CB0EC
:1003700024223A4903A800F02BFA39A207CA8DE8D3
:10038000070000F04FF900F079F800203749486085
:100390004FF0FC502E4908600020344908612C4879
:1003A000006C2B49086400202A4908603049086025
:1003B0000DE003A82E49096850F82100264908607D
:1003C000FFF7C3FF2A480068401C294908602848F5
:1003D00000680928EDDB01201E490860002024493F
:1003E000086031E01A48406D10F4805F2CD1FFF7AF
:1003F000BDFE062190FBF1F201FB1200401C1D49DD
:1004000008700846007830300870084600781249B5
:100410000860FFF79AFF00201549086004E01448BF
:100420000068401C1249086011480068124988425F
:10043000F5DB002007490860012007490860FFF745
:1004400084FF012003490860CCE70000040000108D
:1004500000C0092008000010000000108008000003
:100460006D657373616765310000000000C0024074
:100470000C00001010000010809698002DE9F04745
:10048000B1480068C0F3016003287CD1AF48006820
:1004900010F0030006D0012833D002285FD00328D3
:1004A0002ED100E000BFA8480068C0F3074000F16B
:1004B00001044FF00201A648D0F88800C0F30E00F6
:1004C00000F10100A1FB0001A24B4FF0000CA0FBCA
:1004D000037901FB039100FB0C1122466346384669
:1004E000FFF77CFE05469C480068C0B200F101049D
:1004F00022464FF000032846FFF770FE9749086038
:100500005DE091480068C0F3074000F101044FF03E
:1005100002018F48D0F88800C0F30E0000F10100FE
:10052000A1FB00108E4A4FF0000CA1FB027900FBEA
:10053000029001FB0C01224663463846FFF74EFE4F
:10054000054685480068C0B200F1010422464FF01C
:1005500000032846FFF742FE804908602FE07A48F2
:100560000068C0F3074000F101044FF00201784831
:10057000D0F88800C0F30E0000F10100A1FB0012CA
:100580004FF4004000E01BE04FF00003A1FB0079B6
:1005900002FB009001FB030122463846FFF71EFED6
:1005A00005466D480068C0B200F1010422464FF0D4
:1005B00000032846FFF712FE6849086000BF2FE0DD
:1005C0006248006810F0030006D0012810D002280D
:1005D00019D0032823D100E000BF5F480068C0B2F3
:1005E00000F101005B49B1FBF0F05C49086016E0E6
:1005F00059480068C0B200F101005949B1FBF0F060
:10060000564908600BE054480068C0B200F1010090
:100610004FF40041B1FBF0F05049086000BF00BF4B
:10062000BDE8F08720204F4908604948D0F8A00174
:1006300010F0200F05D000BF4A48006810F0400FAE
:10064000FAD00320444908604FF000004049C1F847
:10065000A801454908604FF001003C490860434843
:10066000434908604FF0AA00424908604FF0550026
:1006700008604FF00100404908604FF0AA003D4972
:1006800008604FF055003249C1F88C0000BF2E4879
:10069000006810F0806FFAD00320374908604FF0EF
:1006A000AA002B49C1F88C004FF055003149086071
:1006B00000BF2548006800F04070B0F1407FF8D1DD
:1006C00023202E4908604FF0AA002149C1F8AC0050
:1006D0004FF055002A4908604FF001002949086091
:1006E0004FF0AA00264908604FF055001849C1F89C
:1006F000AC0000BF2448006810F4806FFAD00320DB
:10070000204908604FF0AA001149C1F8AC004FF031
:1007100055001B49086000BF1B48006800F440708A
:10072000B0F5407FF8D11948194908604FF0000032
:100730000749C1F8C8010846006820F4704040F439
:10074000804008607047000088C00F400CC10F4017
:1007500000C00F4000093D0004C10F40140000100C
:10076000001BB700A0C10F40ACC10F4063000500E3
:1007700084C00F408CC00F4080C00F40A4C00F4009
:10078000ACC00F40A0C00F40A8C00F40DE872804B7
:10079000C4C00F400B4910B5A1F17C020A4CC2E95C
:1007A0003712372106E000EB104342F82130074BA7
:1007B00000FB03400B1EA1F10101F4DC10BD012080
:1007C000E8E7000094000010E119D666CD0D0100A5
:1007D00010B5203AC0F00B80B1E81850203AA0E8DC
:1007E0001850B1E81850A0E81850BFF4F5AF5FEA10
:1007F000027C24BFB1E81850A0E8185044BF18C9C3
:1008000018C0BDE810405FEA827C24BF51F8043B69
:1008100040F8043B08BF7047D20728BF31F8023BBD
:1008200048BF11F8012B28BF20F8023B48BF00F851
:10083000012B70477546FFF751FDAE46050069462E
:10084000534620F00700854618B020B5FFF7B6FCE8
:10085000BDE820404FF000064FF000074FF00008C1
:100860004FF0000B21F00701AC46ACE8C009ACE842
:10087000C009ACE8C009ACE8C0098D46704700006B
:10088000030000000300000003000000020000005D
:100890000200000001000000060000000C00000043
:1008A00080000000C40800000000001018000000D4
:1008B00008010000DC0800001800001048030000D8
:1008C0002401000000000000000000000000000003
:0C08D000000000000000000000E1F50541
:04000005000001A155
:00000001FF
