:020000040000FA
:10000000E0020010690100007101000073010000AE
:100010007501000077010000790100000000000078
:100020000000000000000000000000007B01000054
:100030007D010000000000007F0100008101000040
:1000400083010000830100008301000083010000A0
:100050008301000083010000830100008301000090
:100060008301000083010000830100008301000080
:100070008301000083010000830100008301000070
:100080008301000083010000830100008301000060
:100090008301000083010000830100008301000050
:1000A0008301000083010000830100008301000040
:1000B0008301000083010000830100008301000030
:1000C00083010000830100008301000000F002F8BA
:1000D00000F03AF80AA090E8000C82448344AAF1A8
:1000E0000107DA4501D100F02FF8AFF2090EBAE8A6
:1000F0000F0013F0010F18BFFB1A43F0010318475C
:100100006008000080080000103A24BF78C878C159
:10011000FAD8520724BF30C830C144BF04680C600D
:10012000704700000023002400250026103A28BF55
:1001300078C1FBD8520728BF30C148BF0B60704759
:100140001FB51FBD10B510BD00F0A6F81146FFF792
:10015000F7FF00F0BAFA00F0C4F803B4FFF7F2FFBB
:1001600003BC00F0F7FB000009488047094800473E
:10017000FEE7FEE7FEE7FEE7FEE7FEE7FEE7FEE757
:10018000FEE7FEE704480549034A054B70470000B7
:10019000A9040000CD000000E0000010E002001003
:1001A000E000001053EA020C00F069802DE9F04BEA
:1001B0004FF00006002B1FBFB3FA83F503FA05F4D6
:1001C00024FA05F65E4012BF1643B2FA82F502FA2F
:1001D00005F4C5F120051EBF22FA05FC44EA0C0413
:1001E000203556EA044C4FEA144418BF641C4FF003
:1001F00000084FF00009904271EB030C39D300293D
:1002000019BFB1FA81F701FA07F6B0FA80F700FAE0
:1002100007F6C7F120071EBF20FA07FC46EA0C06C6
:100220002037B6FBF4FCA7EB0507103F07F01F0BC8
:10023000CBF120060CFA0BFB2CFA06F644BFB346B2
:100240000026202FA4BF5E464FF0000B5BEA060C91
:1002500008BF4FF0010B19EB0B09ABFB027C48EB1D
:100260000608C01B06FB02CC0BFB03CC71EB0C0198
:10027000C1E70B46024641464846BDE8F08B13B540
:100280004FF000004FF00001AFF30080BDE81C40CC
:100290007047704770477047754600F029F8AE46C2
:1002A00005006946534620F00700854618B020B582
:1002B000FFF768FFBDE820404FF000064FF0000751
:1002C0004FF000084FF0000B21F00701AC46ACE8FE
:1002D000C009ACE8C009ACE8C009ACE8C0098D466B
:1002E00070470446AFF300802046FFF736FF00005A
:1002F000004870477C00001070470000FFFFFFFFC0
:100300002DE9F047B1480068C0F3016003287CD1B3
:10031000AF48006810F0030006D0012833D002284F
:100320005FD003282ED100E000BFA8480068C0F3CA
:10033000074000F101044FF00201A648D0F8880000
:10034000C0F30E0000F10100A1FB0001A24B4FF031
:10035000000CA0FB037901FB039100FB0C1122466A
:1003600063463846FFF71EFF05469C480068C0B24A
:1003700000F1010422464FF000032846FFF712FF68
:10038000974908605DE091480068C0F3074000F1BC
:1003900001044FF002018F48D0F88800C0F30E002E
:1003A00000F10100A1FB00108E4A4FF0000CA1FBF0
:1003B000027900FB029001FB0C012246634638469D
:1003C000FFF7F0FE054685480068C0B200F1010461
:1003D00022464FF000032846FFF7E4FE80490860FC
:1003E0002FE07A480068C0F3074000F101044FF0A5
:1003F00002017848D0F88800C0F30E0000F1010037
:10040000A1FB00124FF4004000E01BE04FF000039E
:10041000A1FB007902FB009001FB03012246384654
:10042000FFF7C0FE05466D480068C0B200F1010448
:1004300022464FF000032846FFF7B4FE68490860E3
:1004400000BF2FE06248006810F0030006D00128CA
:1004500010D0022819D0032823D100E000BF5F4844
:100460000068C0B200F101005B49B1FBF0F05C49EB
:10047000086016E059480068C0B200F1010059490F
:10048000B1FBF0F0564908600BE054480068C0B278
:1004900000F101004FF40041B1FBF0F05049086059
:1004A00000BF00BFBDE8F08720204F4908604948E1
:1004B000D0F8A00110F0200F05D000BF4A48006816
:1004C00010F0400FFAD00320444908604FF00000BC
:1004D0004049C1F8A801454908604FF001003C4976
:1004E00008604348434908604FF0AA004249086049
:1004F0004FF0550008604FF00100404908604FF090
:10050000AA003D4908604FF055003249C1F88C00FF
:1005100000BF2E48006810F0806FFAD003203749E2
:1005200008604FF0AA002B49C1F88C004FF055002D
:100530003149086000BF2548006800F04070B0F104
:10054000407FF8D123202E4908604FF0AA002149AE
:10055000C1F8AC004FF055002A4908604FF0010087
:10056000294908604FF0AA00264908604FF055005D
:100570001849C1F8AC0000BF2448006810F4806F2F
:10058000FAD00320204908604FF0AA001149C1F8B1
:10059000AC004FF055001B49086000BF1B480068C5
:1005A00000F44070B0F5407FF8D11948194908604F
:1005B0004FF000000749C1F8C8010846006820F460
:1005C000704040F4804008607047000088C00F40D1
:1005D0000CC10F4000C00F4000093D0004C10F4096
:1005E00000000010001BB700A0C10F40ACC10F40BD
:1005F0006300050084C00F408CC00F4080C00F40D6
:10060000A4C00F40ACC00F40A0C00F40A8C00F4016
:10061000DE872804C4C00F40B7480088C005B7492A
:100620004861B748007818B94FF00060C86103E02E
:100630004FF00060B14988614FF08050AF49886148
:100640000020B049086004E0AE480068401CAD4995
:100650000860AC4800681928F6D34FF08050A749CD
:10066000C8610020A749086004E0A6480068401C53
:10067000A4490860A348006847F230518842F4D387
:10068000704700B5A048007800F0F0009A49086073
:100690000846006800090860FFF7BEFF9848007828
:1006A00038B99948006820280ED09748006830284B
:1006B0000AD09548007800F00F008F49086008467E
:1006C00000680860FFF7A8FF00BD10B5FFF7ECFE5B
:1006D000FFF716FE00208D4948600861C8604FF0A2
:1006E000FC50864908604FF470500864002008628E
:1006F00083490870864908600DE086488449096886
:1007000050F8210080490860FFF7BBFF804800686F
:10071000401C7F4908607E4800680928EDD301200D
:10072000774908708CE000207B49086083E0002056
:100730007A490860784800780A30012181406F4882
:10074000416500207649086004E075480068401C57
:1007500073490860724800686428F6D36748406BA4
:10076000C0F3C3506F4908600846006800284FD0A6
:1007700008460068012803D100206B49086016E094
:1007800068480068022803D10120674908600EE02C
:1007900064480068042803D102206349086006E029
:1007A00060480068082802D103205F4908605F485C
:1007B0000068401C5D4908605D485749096800EBC6
:1007C000810059490968405C5A4908700846007818
:1007D0004D490860FFF755FF54480068012805D1CE
:1007E0005448007830385449086011E04F48006898
:1007F000022804D14F4800785049087008E04B485F
:100800000068032804D14B48007830384C49086010
:1008100000203F49086004E03D480068401C3C4916
:1008200008603B48006847498842F5D33A48006869
:10083000401C39490860384800680428FFF477AF45
:100840003A4800680328FFF66EAFC0202E490860C2
:1008500000202B490870FFF714FF01202849087079
:10086000364800782B2802D02D2810D107E03248D6
:1008700000683349096808443349086007E02E4896
:1008800000682F490968401A2F49086000BF00BF5F
:1008900017E02D4800680A2190FBF1F201FB1200DD
:1008A0003030C1B2294802680068401E274B1860EA
:1008B00027488154244800680A2190FBF1F022491E
:1008C0000860214800680028E3D1114908600CE065
:1008D0001F480F490968405C0B490860FFF7D1FECB
:1008E0000B480068401C0A49086009480068022853
:1008F000EED3002010BD00000800001000C0092049
:100900000C000010540000100400001000C0024051
:100910004C000010180000105C0000106400001073
:10092000500000106800001060000010100000105F
:100930003C000010580000106C00001078000010FF
:100940007000001020A107007400001014000010B7
:100950000E00001001491820ABBEFEE72600020081
:1009600080090000000000107C0000000801000069
:10097000FC0900007C00001064020000240100005B
:1009800000E1F5050000000000000000000030302C
:1009900000000000010000003000000030000000F6
:1009A00030000000200000002800000001000000CE
:1009B000060000000C0000008000000030313233DF
:1009C0003435363738392B2D3031323300000000C2
:1009D0000000000000000000000000000000000017
:1009E0000000000000000000000000000000000007
:0C09F000000000000000000000000000FB
:04000005000001698D
:00000001FF
